S013000043504570726F6A656374322E7372656310
S11300000C9471000C947B000C947B000C947B008A
S11300100C947B000C947B000C947B000C947B0070
S11300200C947B000C947B000C947B000C947B0060
S11300300C947B000C947B000C947B000C947B0050
S11300400C947B000C947B000C947B000C947B0040
S11300500C947B000C947B000C947B000C947B0030
S11300600C947B000C947B000C947B000C947B0020
S11300700C947B000C947B000C947B000C947B0010
S11300800C947B000C947B000C947B000C947B0000
S11300900C947B000C947B000C947B000C947B00F0
S11300A00C947B000C947B000C947B000C947B00E0
S11300B00C947B000C947B000C947B000C947B00D0
S11300C00C947B000C947B000C947B00C900CD0045
S11300D0D100D500D900DD00E000E400E800EC0028
S11300E0F00011241FBECFEFD8E0DEBFCDBF0E94C9
S11300F044010C9456010C94000083EF8093850016
S11301008BEC8093840084E080938100B09BFECFCD
S11301101092810081E086BB08958EEF8093850064
S113012087EC8093840084E080938100B09BFECFB1
S11301301092810081E086BB089580E18DB91EB8DC
S1130140089580E18EB90E947D001EB8089580E173
S11301508EB90E948D000E948D000E948D000E9425
S11301608D000E948D001EB8089511B88FEF82B9DA
S113017008958FEF8AB980E28DB91BB81EB808952F
S113018090E08B30910570F5FC01EA59FF4F0C9417
S113019050018FEF8BB97598089581E08BB97598EC
S11301A0089582E08BB97598089584E08BB97598A9
S11301B0089588E08BB9759808951BB8759A0895C9
S11301C080E18BB97598089580E28BB9759808958C
S11301D080E48BB97598089580E88BB97598089573
S11301E01BB875980895CF93079918C0079BFECF45
S11301F00E94A100C0E30E947D00C93029F480E37D
S11302000E94C000C0E304C0CF5F8C2F0E94C000D6
S11302100699F1CF069BFECF0E94A70080E090E0F4
S1130220CF9108951F93CF93DF93C0E0059903C046
S11302300E947D00CF5F0499F9CF0E94A100CC23D6
S1130240B9F01DECDFEFDC0FC19F812D11248695E1
S113025086958695880F982F990F990F890FC81B3B
S11302608C2F0E94C0000E947D00CD2FD111EACFB7
S1130270049B06C00E94A1000E947D000499FACF4D
S1130280DF91CF911F9108950E94B9000E94B5009B
S11302900E949D0078940E94F3000E941201FBCFFB
S11302A0EE0FFF1F0590F491E02D0994F894FFCF11
S9030000FC
