S013000043504570726F6A656374322E7372656310
S11300000C9471000C947B000C947B000C947B008A
S11300100C947B000C947B000C947B000C947B0070
S11300200C947B000C947B000C947B000C947B0060
S11300300C947B000C947B000C947B000C947B0050
S11300400C947B000C947B000C947B000C947B0040
S11300500C947B000C947B000C947B000C947B0030
S11300600C947B000C947B000C947B000C947B0020
S11300700C947B000C947B000C947B000C947B0010
S11300800C947B000C947B000C947B000C947B0000
S11300900C947B000C947B000C947B000C947B00F0
S11300A00C947B000C947B000C947B000C947B00E0
S11300B00C947B000C947B000C947B000C947B00D0
S11300C00C947B000C947B000C947B00C700CB0049
S11300D0CF00D300D700DB00DE00E200E600EA0038
S11300E0EE0011241FBECFEFD8E0DEBFCDBF0E94CB
S11300F05A010C9480010C94000083EF80938500D6
S11301008BEC8093840084E080938100B09BFECFCD
S11301101092810081E086BB08958EEF8093850064
S113012087EC8093840084E080938100B09BFECFB1
S11301301092810081E086BB08956C9A089580E155
S11301408EB90E947D001EB8089580E18EB90E9488
S11301508D000E948D000E948D000E948D000E94DF
S11301608D001EB8089511B88FEF82B908958FEFEE
S11301708AB980E28DB91BB81EB8089590E08B301F
S1130180910570F5FC01EA59FF4F0C947A018FEF49
S11301908BB97598089581E08BB97598089582E0BC
S11301A08BB97598089584E08BB97598089588E0A3
S11301B08BB9759808951BB8759A089580E18BB929
S11301C07598089580E28BB97598089580E48BB989
S11301D07598089580E88BB9759808951BB875983B
S11301E00895EF92FF920F931F93CF9307992AC01C
S11301F0079BFECF0E949F0001E010E0C0E3E12CCA
S1130200F12C01C08C010E947D00C93029F480E3E7
S11302100E94BE00C0E304C0CF5F8C2F0E94BE00CA
S1130220039907C0039BFECFC8018E199F0988B9A3
S11302307801C80101960699E5CF069BFECF0E947E
S1130240A50008B9CF911F910F91FF90EF900895E9
S11302501F93CF93DF93C0E0059903C00E947D00F4
S1130260CF5F0499F9CF0E949F00CC23B9F01DEC15
S1130270DFEFDC0FC19F812D11248695869586952D
S1130280880F982F990F990F890FC81B8C2F0E94E4
S1130290BE000E947D00CD2FD111EACF049B06C081
S11302A00E949F000E947D000499FACFDF91CF91B4
S11302B01F9108950E94B7000E94B3000E949D0000
S11302C078948FEF87B918B8C1E090B180B1869562
S11302D081708C13FACF90FDF8CF009904C0009B75
S11302E0FECF0E94F1000199F0CF019BFECF0E9446
S11302F02801EBCFEE0FFF1F0590F491E02D099438
S1070300F894FFCF9B
S9030000FC
