S013000043504570726F6A656374322E7372656310
S11300000C9471000C947B000C947B000C947B008A
S11300100C947B000C947B000C947B000C947B0070
S11300200C947B000C947B000C947B000C947B0060
S11300300C947B000C947B000C947B000C947B0050
S11300400C947B000C947B000C947B000C947B0040
S11300500C947B000C947B000C947B000C947B0030
S11300600C947B000C947B000C947B000C947B0020
S11300700C947B000C947B000C947B000C947B0010
S11300800C947B000C947B000C947B000C947B0000
S11300900C947B000C947B000C947B000C947B00F0
S11300A00C947B000C947B000C947B000C947B00E0
S11300B00C947B000C947B000C947B000C947B00D0
S11300C00C947B000C947B000C947B001B011F019F
S11300D0230127012B012F01320136013A013E0190
S11300E0420111241FBECFEFD8E0DEBFCDBF0E9476
S11300F096010C94E1010C94000083EF8093850039
S11301008BEC8093840084E080938100B09BFECFCD
S11301101092810081E086BB08958EEF8093850064
S113012087EC8093840084E080938100B09BFECFB1
S11301301092810081E086BB089580E18DB91EB8DC
S1130140089580E18EB90E947D001EB8089580E173
S11301508EB90E948D000E948D000E948D000E9425
S11301608D000E948D001EB8089511B88FEF82B9DA
S1130170089587E68093C4001092C500E1ECF0E096
S113018080818861808380818083E2ECF0E08081DB
S1130190866080838081877F808308958093C600F2
S11301A0E0ECF0E0808186FFFDCFE0ECF0E08081C0
S11301B0806480830895EF92FF920F931F93CF93EF
S11301C0DF93CDB7DEB7A0970FB6F894DEBF0FBEAE
S11301D0CDBF4AE0BE016F5F7F4F0E94AC018E012C
S11301E00F5F1F4F7E0181E2E80EF11CF80181913F
S11301F08F010E94CE000E151F05C1F7A0960FB601
S1130200F894DEBF0FBECDBFDF91CF911F910F9148
S1130210FF90EF9008958FEF8AB980E28DB91BB8F3
S11302201EB8089590E08B30910570F5FC01EA59F1
S1130230FF4F0C94A6018FEF8BB97598089581E058
S11302408BB97598089582E08BB97598089584E008
S11302508BB97598089588E08BB9759808951BB883
S1130260759A089580E18BB97598089580E28BB9E9
S11302707598089580E48BB97598089580E88BB9D2
S1130280759808951BB875980895CF93079918C069
S1130290079BFECF0E94A100C0E30E947D00C930ED
S11302A029F480E30E941201C0E304C0CF5F8C2FC5
S11302B00E9412010699F1CF069BFECF0E94A7006F
S11302C080E090E0CF9108951F93CF93DF93C0E037
S11302D0059903C00E947D00CF5F0499F9CF0E9465
S11302E0A100CC23B9F01DECDFEFDC0FC19F812D01
S11302F01124869586958695880F982F990F990FC6
S1130300890FC81B8C2F0E9412010E947D00CD2FE3
S1130310D111EACF049B06C00E94A1000E947D0077
S11303200499FACFDF91CF911F9108950E94B900EB
S11303300E940B010E94B5000E949D0078940E94C7
S113034045010E94DB000E946401F9CFEE0FFF1FFC
S11303500590F491E02D0994BB274A3031F4992398
S113036022F4BDE2909581959F4F0C94B801BB2770
S1130370FB015527AA27880F991FAA1FA41710F05D
S1130380A41B83955051B9F7A05DAA3308F0A95D69
S1130390A193009779F7B111B1931192CB010C9409
S11303A0D101DC01FC01672F71917723E1F73297CA
S11303B004C07C916D9370836291AE17BF07C8F33C
S10903C00895F894FFCF3C
S9030000FC
