S013000043504570726F6A656374322E7372656310
S11300000C9466000C9470000C9470000C947000B6
S11300100C9470000C9470000C9470000C9470009C
S11300200C9470000C9470000C9470000C9470008C
S11300300C9470000C9470000C9470000C9470007C
S11300400C9470000C9470000C9470000C9470006C
S11300500C9470000C9470000C9470000C9470005C
S11300600C9470000C9470000C9470000C9470004C
S11300700C9470000C9470000C9470000C9470003C
S11300800C9470000C9470000C9470000C9470002C
S11300900C9470000C9470000C9470000C9470001C
S11300A00C9470000C9470000C9470000C9470000C
S11300B00C9470000C9470000C9470000C947000FC
S11300C00C9470000C9470000C94700011241FBEEA
S11300D0CFEFD8E0DEBFCDBF0E9482000C949A001F
S11300E00C94000083EF809385008BEC8093840054
S11300F084E080938100B09BFECF1092810081E068
S113010086BB089511B88FEF82B97894C0E0D0E02F
S11301100799FECF079BFECF0E947200C930D1051C
S113012011F0219602C0C0E0D0E00699F5CF069BFD
S10B0130FECFEECFF894FFCFDF
S9030000FC
