S013000043504570726F6A656374322E7372656310
S11300000C9471000C947B000C947B000C947B008A
S11300100C947B000C947B000C947B000C947B0070
S11300200C947B000C947B000C947B000C947B0060
S11300300C947B000C947B000C947B000C947B0050
S11300400C947B000C947B000C947B000C947B0040
S11300500C947B000C947B000C947B000C947B0030
S11300600C947B000C947B000C947B000C947B0020
S11300700C947B000C947B000C947B000C947B0010
S11300800C947B000C947B000C947B000C947B0000
S11300900C947B000C947B000C947B000C947B00F0
S11300A00C947B000C947B000C947B000C947B00E0
S11300B00C947B000C947B000C947B000C947B00D0
S11300C00C947B000C947B000C947B0093009700B1
S11300D09B009F00A300A700AA00AE00B200B600D8
S11300E0BA0011241FBECFEFD8E0DEBFCDBF0E94FF
S11300F018010C9435010C9400006C9A089511B801
S11301008FEF82B908958FEF8AB980E28DB91BB859
S11301101EB8089590E08B30910570F5FC01EA5902
S1130120FF4F0C942F018FEF8BB97598089581E0E0
S11301308BB97598089582E08BB97598089584E019
S11301408BB97598089588E08BB9759808951BB894
S1130150759A089580E18BB97598089580E28BB9FA
S11301607598089580E48BB97598089580E88BB9E3
S1130170759808951BB875980895EF92FF920F93A0
S11301801F93CF938FEF87B9079BFECF01E010E059
S1130190C0E3E12CF12C01C08C01C93029F480E3C7
S11301A00E948A00C0E304C0CF5F8C2F0E948A00A3
S11301B0039B07C00399FECFC8018E199F0988B914
S11301C07801C8010196069BE7CF0699FECF08B9CE
S11301D0CF911F910F91FF90EF900895CF93DF93EC
S11301E080E005998F5F049BFCCF8823A1F0DDECB0
S11301F0CFEFC80F8D9F912D1124969596959695C6
S1130200990F292F220F220F920F891B0E948A0017
S11302108C2FC111EDCF049905C080E00E948A00A3
S1130220049BFBCF8AE00E948A00DF91CF9108955E
S11302300E9483000E947F000E947D0078948FEFCB
S113024087B918B8009B04C00099FECF0E94BD0076
S1130250019BF8CF0199FECF0E94EE00F3CFEE0F81
S1110260FF1F0590F491E02D0994F894FFCF50
S9030000FC
